:0200000470008A
:10000000464346420004015600000000010303007D
:1000100000000000000000000000000000000000E0
:1000200000000000000000000000000000000000D0
:1000300000000000000000000000000000000000C0
:1000400000000000000408000000000000000000A4
:100050000000400000000000000000000000000060
:100060000000000000000000000000000000000090
:100070000000000000000000000000000000000080
:10008000EB04180A063204260000000000000000FD
:100090000000000000000000000000000000000060
:1000A0000000000000000000000000000000000050
:1000B0000000000000000000000000000000000040
:1000C0000000000000000000000000000000000030
:1000D0000000000000000000000000000000000020
:1000E0000000000000000000000000000000000010
:1000F0000000000000000000000000000000000000
:1001000000000000000000000000000000000000EF
:1001100000000000000000000000000000000000DF
:1001200000000000000000000000000000000000CF
:1001300000000000000000000000000000000000BF
:1001400000000000000000000000000000000000AF
:10015000000000000000000000000000000000009F
:10016000000000000000000000000000000000008F
:10017000000000000000000000000000000000007F
:10018000000000000000000000000000000000006F
:10019000000000000000000000000000000000005F
:1001A000000000000000000000000000000000004F
:1001B000000000000000000000000000000000003F
:1001C000000100000010000000000000000000001E
:1001D000000001000000000000000000000000001E
:1001E000000000000000000000000000000000000F
:1001F00000000000000000000000000000000000FF
:0200000470008A
:10100000D10020410020007000000000301000706E
:1010100020100070001000700000000000000000B0
:10102000000000700000400000000000FFFFFFFF14
:10103000D2043041CC03AC04400FC068FFFFFFFF77
:10104000400FC06CFFFFFFFF400FC070FFFFFFFFAE
:10105000400FC074FFFFFFFF400FC078FFFFFFFF8E
:10106000400FC07CFFFFFFFF400FC080FFFFFFFF6E
:10107000400D803000002001400D8100001D000067
:10108000400FC01400010D40401F801400000000FC
:10109000401F801800000000401F801C000000005E
:1010A000401F802000000000401F8024000000003E
:1010B000401F802800000000401F802C000000001E
:1010C000401F803000000000401F803400000000FE
:1010D000401F803800000000401F803C00000000DE
:1010E000401F804000000000401F804400000000BE
:1010F000401F804800000000401F804C000000009E
:10110000401F805000000000401F8054000000007D
:10111000401F805800000000401F805C000000005D
:10112000401F806000000000401F8064000000003D
:10113000401F806800000000401F806C000000001D
:10114000401F807000000000401F807400000000FD
:10115000401F807800000000401F807C00000000DD
:10116000401F808000000000401F808400000000BD
:10117000401F808800000000401F808C000000009D
:10118000401F809000000000401F8094000000007D
:10119000401F809800000000401F809C000000005D
:1011A000401F80A000000000401F80A4000000003D
:1011B000401F80A800000000401F80AC000000001D
:1011C000401F80B000000010401F80B400000000ED
:1011D000401F80B800000000401F8204000110F989
:1011E000401F8208000110F9401F820C000110F915
:1011F000401F8210000110F9401F8214000110F9F5
:10120000401F8218000110F9401F821C000110F9D4
:10121000401F8220000110F9401F8224000110F9B4
:10122000401F8228000110F9401F822C000110F994
:10123000401F8230000110F9401F8234000110F974
:10124000401F8238000110F9401F823C000110F954
:10125000401F8240000110F9401F8244000110F934
:10126000401F8248000110F9401F824C000110F914
:10127000401F8250000110F9401F8254000110F9F4
:10128000401F8258000110F9401F825C000110F9D4
:10129000401F8260000110F9401F8264000110F9B4
:1012A000401F8268000110F9401F826C000110F994
:1012B000401F8270000110F9401F8274000110F974
:1012C000401F8278000110F9401F827C000110F954
:1012D000401F8280000110F9401F8284000110F934
:1012E000401F8288000110F9401F828C000110F914
:1012F000401F8290000110F9401F8294000110F9F4
:10130000401F8298000110F9401F829C000110F9D3
:10131000401F82A0000110F9401F82A4000110F9B3
:10132000401F82A8000110F9402F000010000004A7
:10133000402F000800030524402F000C060305245D
:10134000402F00108000001B402F00148200001B63
:10135000402F00188400001B402F001C8600001B3B
:10136000402F002090000021402F0024A0000019F1
:10137000402F0028A8000017402F002CA900001BB8
:10138000402F003000000021402F0004000079A809
:10139000402F004000000F31402F004400652922FB
:1013A000402F004800010920402F004C50210A081E
:1013B000402F008000000021402F00840088888892
:1013C000402F009400000002402F00980000000011
:1013D000402F009080000000402F009CA55A000F75
:1013E000CF000C1C402F003C00000001CC00140476
:1013F000402F009080000000402F009CA55A000C58
:10140000CF000C1C402F003C00000001CC00140455
:10141000402F009080000000402F009CA55A000C37
:10142000CF000C1C402F003C00000001CC001C042D
:10143000402F00A000000033402F009080000000EB
:10144000402F009CA55A000ACF000C1C402F003CE6
:1014500000000001CC000C04402F004C50210A0970
:0200000470008A
:102000000000072075240070A1530080E93B008088
:1020100099530080710F0080897B008000000000D0
:102020000000000000000000000000008960008047
:10203000912A008000000000F9530080696F008041
:10204000D3240070D7240070DB240070DF240070DC
:10205000E3240070E7240070EB240070EF2400708C
:10206000F3240070F7240070FB240070FF2400703C
:1020700003250070072500700B2500700F250070E8
:1020800013250070A3250070A3250070A325007000
:10209000172500701B2500701F2500702325007078
:1020A000272500702B2500702F2500703325007028
:1020B000372500703B2500703F25007043250070D8
:1020C000472500704B2500704F2500705325007088
:1020D000572500705B250070A3250070A3250070B4
:1020E000A3250070A3250070A3250070A9220080FD
:1020F000A3250070A3250070A3250070A325007000
:10210000A3250070A3250070A3250070A3250070EF
:10211000A3250070A3250070A3250070A3250070DF
:102120005F25007063250070672500706B250070C7
:102130006F250070A3250070A3250070A3250070F3
:10214000A3250070A3250070A3250070A3250070AF
:10215000A3250070A3250070A3250070A32500709F
:10216000A3250070A3250070A3250070A32500708F
:10217000A3250070A3250070A3250070A32500707F
:10218000A3250070A3250070013800800938008065
:10219000A3250070A3250070A3250070A32500705F
:1021A000A3250070A32500707325007077250070AB
:1021B000A3250070A3250070A3250070A32500703F
:1021C000A3250070A3250070A3250070A32500702F
:1021D000A3250070A3250070A3250070A32500701F
:1021E000A3250070A3250070A32500707B25007037
:1021F0007F250070A325007083250070872500705F
:10220000D9770080C97700808B250070692B00800A
:10221000A3250070A3250070A3250070A3250070DE
:10222000A3250070A3250070A9530080A32500708A
:10223000A3250070A3250070A3250070A3250070BE
:10224000A3250070A3250070A3250070A3250070AE
:10225000A3250070A3250070A3250070A32500709E
:10226000A3250070A3250070A3250070A32500708E
:10227000A3250070A3250070A3250070A32500707E
:10228000A3250070A3250070A3250070A32500706E
:10229000A3250070A3250070A3250070A32500705E
:1022A00093250070972500709B250070A325007072
:1022B0009F250070A3250070A3250070A325007042
:1022C000A3250070A3250070A3250070A32500702E
:1022D000A3250070A3250070A3250070A32500701E
:1022E000A3250070A3250070A3250070A32500700E
:1022F000A3250070A3250070A3250070A3250070FE
:10230000A3250070A3250070A3250070A3250070ED
:10231000A3250070A3250070A3250070A3250070DD
:10232000A3250070A3250070A3250070A3250070CD
:10233000A3250070A3250070A3250070A3250070BD
:10234000A3250070A3250070A3250070A3250070AD
:10235000A3250070A3250070A3250070A32500709D
:10236000A3250070A3250070A3250070A32500708D
:10237000A3250070A3250070A3250070A32500707D
:10238000A3250070A3250070A3250070A32500706D
:10239000A3250070A3250070A3250070A32500705D
:1023A000A3250070A3250070A3250070A32500704D
:1023B000A3250070A3250070A3250070A32500703D
:1023C000A3250070A3250070A3250070A32500702D
:1023D000A3250070A3250070A3250070A32500701D
:1023E000A3250070A3250070A3250070A32500700D
:1023F000A3250070A3250070A3250070FFFFFFFF39
:1024000000F002F800F019FB0AA090E8000C8244EA
:102410008344AAF10107DA4501D100F00EFBAFF2C7
:10242000090EBAE80F0013F0010F18BFFB1A43F0B2
:10243000010318471006000040060000103A24BFB0
:1024400078C878C1FAD8520724BF30C830C144BF19
:1024500004680C607047000000230024002500265B
:10246000103A28BF78C1FBD8520728BF30C148BFF7
:102470000B6070474C484AF6AF21CAF6AA210160AA
:102480004A48016841F00401016049480168C0F20E
:1024900000014FF007024FF00A034FEA02424FEAF1
:1024A000035342EA0301016072B6424842490160A7
:1024B0000A6882F308884148804762B6404800476E
:1024C000FEE7FEE7FEE7FEE7FEE7FEE7FEE7FEE7E4
:1024D000FEE73C4800473C4800473C4800473C4832
:1024E00000473C4800473C4800473C4800473C48C0
:1024F00000473C4800473C4800473C4800473C48B0
:1025000000473C4800473C4800473C4800473C489F
:1025100000473C4800473C4800473C4800473C488F
:1025200000473C4800473C4800473C4800473C487F
:1025300000473C4800473C4800473C4800473C486F
:1025400000473C4800473C4800473C4800473C485F
:1025500000473C4800473C4800473C4800473C484F
:1025600000473C4800473C4800473C4800473C483F
:1025700000473C4800473C4800473C4800473C482F
:1025800000473C4800473C4800473C4800473C481F
:1025900000473C4800473C4800473C4800473C480F
:1025A00000473C480047000044C00A4040C00A4081
:1025B00038C00A4008ED00E0002000709926007045
:1025C00001240070C1230080F12500804126008095
:1025D00091260080E126008031270080812700803D
:1025E000D1270080212800807128008011240080DC
:1025F00061240080B12400800125008051250080E5
:10260000A1250080A3250070314700804947008044
:10261000614700807947008091470080A94700808A
:10262000C1470080D9470080F13B0080313C0080E9
:10263000713C0080B13C0080D94000802141008085
:1026400069410080B1410080790F0080B90F00809E
:102650000154008079540080F1540080315500808D
:10266000A15B00805137008079370080A32500707E
:10267000A3250070E977008001780080F12C0080AC
:10268000A3250070592B0080A3250070F90F00804E
:10269000A1370080A32500702DE9F04F84B04EF6DD
:1026A00060704FF62861CEF20000CFF6FF714258FD
:1026B00040F2A03C42F47002425040F29C3E40F294
:1026C000983840F2943940F2903A40F28C3B40F214
:1026D000883640F2843740F280310022C8F2000C84
:1026E000C8F2000EC8F20008C8F20009C8F2000AD9
:1026F000C8F2000BC8F20006C8F20007C8F20001D9
:1027000042F20003C7F20003134440F2FC35D3F851
:10271000FC43C8F20005545140F2F835D3F8F843B1
:10272000C8F20005545140F2F435D3F8F443C8F22E
:102730000005545140F2F035D3F8F043C8F20005DB
:10274000545140F2EC35D3F8EC43C8F20005545133
:1027500040F2E835D3F8E843C8F20005545140F29E
:10276000E435D3F8E443C8F20005545140F2E035B3
:10277000D3F8E043C8F20005545140F2DC35D3F8F9
:10278000DC43C8F20005545140F2D835D3F8D843A1
:10279000C8F20005545140F2D435D3F8D443C8F2FE
:1027A0000005545140F2D035D3F8D043C8F20005AB
:1027B000545140F2CC35D3F8CC43C8F20005545103
:1027C00040F2C835D3F8C843C8F20005545140F26E
:1027D000C435D3F8C443C8F20005545140F2C035A3
:1027E000D3F8C043C8F20005545140F2BC35D3F8C9
:1027F000BC43C8F20005545140F2B835D3F8B84391
:10280000C8F20005545140F2B435D3F8B443C8F2CD
:102810000005545140F2B035D3F8B043C8F200057A
:10282000545140F2AC35D3F8AC43C8F200055451D2
:1028300040F2A835D3F8A843C8F20005545140F23D
:10284000A435D3F8A443C8F200055451D3F8A043EB
:1028500042F80C40D3F89C4342F80E40D3F898431A
:1028600042F80840D3F8944342F80940D3F8904323
:1028700042F80A40D3F88C4342F80B40D3F888431F
:102880009451D3F88443D451D3F880335350803AD1
:1028900012F5806F7FF434AF4FF6A851CFF6FF7179
:1028A0004FF0004348F200024350C4F20B0211897A
:1028B00021F0010300211381C4F20D010B8923F0E3
:1028C00001030B8113885B0703D5138823F00403EE
:1028D00013800A88520703D50A8822F004020A806E
:1028E0004CF200024CF22051C4F20B02CDF628113A
:1028F00051604FF6FF719160116841F0200121F0A5
:1029000080034EF210011360CEF200010A68D20774
:1029100003D00A6822F001020A604FF6B452CFF6E3
:10292000FF728158890307D58158C9031AD504B0AD
:10293000BDE8F04F00F080B8BFF34F8F0021BFF328
:102940006F8F40F8101CBFF34F8FBFF36F8F81580C
:1029500041F400318150BFF34F8FBFF36F8F815827
:10296000C903E4D44FF62461CFF6FF710022425030
:102970004FF62061BFF34F8FCFF6FF71415801270B
:10298000C1F34E32C1F3C904CB0807EBD101651E78
:1029900001F00307A9070391A11E029189074FEADD
:1029A00083790191E11E43F6E07B0091002F0BEA51
:1029B0004211234610D049EA0103012F03602B4640
:1029C0000AD0039B022F43EA01030360029B03D05A
:1029D000019B0B430360009B032C14D35E1E03F189
:1029E000010A41EA837C41EA867E8CF0004841EA94
:1029F0008A71DB430433C0F800C0C0F800E0C0F8BF
:102A000000800160F6D1002AA2F10102CED14FF67A
:102A1000B451BFF34F8FCFF6FF710A46415841F4CE
:102A200080318150BFF34F8FBFF36F8F04B0BDE88B
:102A3000F04F00F001B80000704740F20D4CC8F2B2
:102A4000000C6047782A00700004008084CD0000EC
:102A50003C240070FCF700700000002050000000D3
:102A60003C2400704CF80070500000206C9800006E
:102A700058240070000000001FB50CF0E2FA1FBDE2
:102A800010B510BDDFF80CD0FFF7F6FF0BF0A8FA79
:102A900000F0F9F80000072003B4FFF7F1FF03BCD2
:102AA00000F0FAF853EA020C00F069802DE9F04BCF
:102AB0004FF00006002B1FBFB3FA83F503FA05F4AD
:102AC00024FA05F65E4012BF1643B2FA82F502FA06
:102AD00005F4C5F120051EBF22FA05FC44EA0C04EA
:102AE000203556EA044C4FEA144418BF641C4FF0DA
:102AF00000084FF00009904271EB030C39D3002914
:102B000019BFB1FA81F701FA07F6B0FA80F700FAB7
:102B100007F6C7F120071EBF20FA07FC46EA0C069D
:102B20002037B6FBF4FCA7EB0507103F07F01F0B9F
:102B3000CBF120062CFA06F60CFA0BFB44BFB34689
:102B40000026202FA4BF5E464FF0000B5BEA060C68
:102B500008BF4FF0010B19EB0B0948EB0608ABFB64
:102B6000027C06FB02CC0BFB03CCC01B71EB0C01FF
:102B7000C1E70B46024641464846BDE8F08B13B517
:102B80004FF000004FF00001AFF30080BDE81C40A3
:102B9000704710B54C1084EA530404D54042C1F18B
:102BA000000138BF491E1B4204D55242C3F1000345
:102BB00038BF5B1EFFF776FF14F0804F04D0404211
:102BC000C1F1000138BF491E14F0004F04D0524239
:102BD000C3F1000338BF5B1E10BD10B5431C02E0FB
:102BE00010F8011B71B18107FAD14FF0013202C810
:102BF0008C1A8C4314EAC211F9D0C01A0A0603D009
:102C0000C01E10BDC01A10BD0A0401D0801E10BD28
:102C10000902FCD0401E10BD4FF0000200B5134663
:102C200094469646203922BFA0E80C50A0E80C50EC
:102C3000B1F12001BFF4F7AF090728BFA0E80C509D
:102C400048BF0CC05DF804EB890028BF40F8042B96
:102C500008BF704748BF20F8022B11F0804F18BF03
:102C600000F8012B704710B500F008F8006810BD9F
:102C700010B5044600F002F8046010BD004870472B
:102C800050000020704710B50446AFF30080204686
:102C9000BDE81040FFF700BF01491820ABBEFEE7BA
:102CA000260002000000000070B549F2E070C2F298
:102CB00000004FF4004148F2E0050160C4F20D0548
:102CC000D5F8E00143F2006140F48030C5F8E0013E
:102CD000C0F26E11D5F8E0014CF26C0420F4003023
:102CE000C5F8E00149F2E470C2F200000160002082
:102CF000C4F20F0401F09CFD01F0EEFD012001265D
:102D000001F0F6FD54F86C0C7F2161F3070044F8E4
:102D10006C0C54F8540C66F30D3044F8540C54F811
:102D2000580C40F0007044F8580C00BF54F8240CC4
:102D3000800644BF54F8240C5FEA806007D554F83D
:102D4000240C800603D554F8240C8006EED4002011
:102D5000C4F20800C168132262F30401C160016873
:102D6000B1F1FF3F09DD01680029A4BF0168002916
:102D700003DB0168B1F1FF3FF1DC4CF62840C8F2FB
:102D8000000001F029FD00F093FC4FF4803645F877
:102D90006C6CD5F8900020F40040C5F89000D5F890
:102DA000900020F40000C5F8900055F8700C40F435
:102DB000005045F8700C00F093FC55F8400C40F4BE
:102DC000803045F8400CD5F8900020F04040C5F820
:102DD000900055F8400C40F4005045F8400C00F0CD
:102DE0006FFC6E600121286861F30100286028688B
:102DF00040F400502860286820F00C002860286803
:102E000040F480102860286840F40010286000F02A
:102E10005FFC45F8BC6C55F8C00C40F4005045F818
:102E2000C00C54F8580C20F4E05044F8580C00BF83
:102E300054F8240C800744BF54F8240C5FEA8070D7
:102E400007D554F8240C800703D554F8240C8007C8
:102E5000EED42068012120F440302060206820F466
:102E600040702060606820F440006060606820F07E
:102E70004070606054F8580C40F4407044F8580CAE
:102E800054F85C0C61F3020044F85C0C54F8240C18
:102E9000C00344BF54F8240C5FEAC03007D554F88F
:102EA000240CC00303D554F8240CC003EED454F80A
:102EB000540C40F4402044F8540C54F8580C20F0C2
:102EC000007044F8580C54F8240C80060CD554F8C3
:102ED000240C800644BF54F8240C5FEA806003D5BC
:102EE00054F8240C8006EED454F8580C042220F038
:102EF000605044F8580C54F8540C20F4405044F8F6
:102F0000540C206820F440102060206820F4400019
:102F1000206054F8040C20F0407044F8040C54F87D
:102F2000040C20F0406044F8040C206820F4405069
:102F30002060012054F8501C60F3050144F8501C37
:102F400054F8501C21F0400144F8501C616921F0F4
:102F50000C01616154F8481C60F3CD2144F8481C11
:102F600054F8501C21F4803144F8501C616921F060
:102F70003001616154F8481C60F3124144F8481C68
:102F800054F8501C21F4003144F8501C616921F4BC
:102F90004061616154F8501C21F0607144F8501C8C
:102FA00054F8501C41F0C04144F8501C616821F0B5
:102FB0000C01616054F8301C60F3CD2144F8301CE2
:102FC00054F8301C21F4C06144F8301C216821F011
:102FD00003012160216821F00C012160216821F0AA
:102FE00030012160216821F0C001216054F8541C97
:102FF00062F39C61022244F8541C54F8541C62F39E
:10300000051144F8541C54F8041C21F4400144F800
:10301000041C54F8481C62F35A6144F8481C54F8E4
:10302000541C62F38F3144F8541C216921F440216F
:103030002161032154F8443C61F3881344F8443C73
:1030400054F8443C60F3050344F8443C54F8503CC5
:1030500023F4406344F8503C236923F44013236174
:1030600054F8403C61F3881344F8403C54F8403C29
:1030700060F3050344F8403C54F8503C23F44053BB
:1030800044F8503C236923F44003236154F8443C42
:1030900061F3985344F8443C54F8443C60F31543BE
:1030A00044F8443C54F8503C23F4404344F8503C2A
:1030B000636823F0C0036360636823F44073636054
:1030C000636823F44063636054F8343C23F0FC737A
:1030D00044F8343C54F8343C23F4802344F8343C22
:1030E00054F8043C23F4404344F8043C54F8043CB2
:1030F00023F4402344F8043CA36923F0C003A361F4
:1031000054F8043C23F4403344F8043C54F8043CA1
:1031100023F4401344F8043CA36923F44073A361EF
:1031200054F84C3C60F3870344F84C3C54F84C3C56
:1031300062F3092344F84C3C226922F04072226178
:1031400054F8042C22F0405244F8042C54F8042C77
:1031500022F4405244F8042C226822F0407222608B
:10316000A26822F00C02A260A26822F0C002A26053
:10317000226922F040622261626922F44042626167
:1031800054F8482C22F03F0244F8482C54F8482CBC
:1031900022F0400244F8482CA26822F44062A26067
:1031A00054F8342C60F30E3244F8342C54F8542C78
:1031B00061F3D95244F8542C052254F8341C62F3BC
:1031C000D13144F8341C216921F44041216154F883
:1031D0003C1C60F35B6144F83C1C54F83C1C41F01F
:1031E000E07144F83C1C54F83C1C41F4401144F894
:1031F0003C1C216921F00C01216154F83C1C60F356
:103200000E3144F83C1C54F83C1C41F4606144F815
:103210003C1C54F83C1C41F4C07144F83C1CA168AF
:1032200021F00301A16054F8441C60F34B2144F8E1
:10323000441C54F8441C60F35B6144F8441C54F88B
:103240004C1C41F4C01144F84C1C54F8601C21F093
:10325000010144F8601CD5F8801021F01F01C5F869
:10326000801054F80C1C21F0700144F80C1C54F828
:103270000C1C60F3030144F80C1C122154F80C0CD4
:1032800020F4600044F80C0C54F80C0C61F314406A
:1032900044F2006144F80C0CC2F2C33154F80C0C37
:1032A00020F4807044F80C0C54F80C0C20F08000D2
:1032B00044F80C0C54F80C0C20F0807044F80C0C02
:1032C00040F22800C2F20000016070BD0000000062
:1032D0004EF61450CEF20000016889030ED5BFF3FC
:1032E0004F8FBFF36F8F016821F40031016000211F
:1032F000C0F83C12BFF34F8FBFF36F8F2DE9F04F33
:1033000084B00168C9035DD5002101670123BFF3C3
:103310004F8F016843F6E07A21F480310160BFF3FA
:103320004F8FC26EC2F34E31C2F3C904D70803EB0C
:10333000D202A4F1010E02F003034FEA8E7203924F
:10334000A21E029292074FEA877C0192E21E00922F
:10335000002B0AEA4117224614D04CEA0702012B3F
:10336000C0F8602272460DD0039A022B42EA07028F
:10337000C0F86022029A05D0019A3A43C0F8602250
:10338000009A00BF032C15D3561E02F1010B47EA29
:10339000827547EA867885F0004947EA8B77D24301
:1033A0000432C0F86052C0F86082C0F86092C0F881
:1033B0006072F5D10029A1F10101C9D1BFF34F8F8E
:1033C000BFF36F8FBFF34F8FBFF36F8F01693B2246
:1033D00021F480310161C0F21032D0F88010122344
:1033E00021F00101C0F880101021CCF20001C0F8DA
:1033F0008810911EC0F88C101121C8F20001C7F28C
:103400000003C0F88810C0F88C200731C0F888305D
:103410002B23C0F20363C0F88C301323C0F888302C
:103420002523C0F88C201422C0F20333C0F8882072
:103430009A1FC0F88C201522C2F20002C0F8882022
:103440001622C2F22002C0F88C30C0F88820172261
:10345000C2F22802C0F88C30C0F88820A3F11C0208
:10346000C0F88C2043F6E07AC0F8881003F10C0114
:10347000C0F88C101921C8F2E011C0F88810292179
:10348000C0F20831C0F88C100521BFF34F8FBFF395
:103490006F8FC0F880100123016941F48031016110
:1034A00000210167BFF34F8FC26EC2F34E31C2F3EA
:1034B000C904D70803EBD202A4F1010E02F0030302
:1034C0004FEA8E720392A21E029292074FEA877C05
:1034D0000192E21E009200BF002B0AEA4117224629
:1034E00014D04CEA0702012BC0F84C2272460DD0D2
:1034F000039A022B42EA0702C0F84C22029A05D036
:10350000019A3A43C0F84C22009A00BF032C15D30D
:10351000561E02F1010B47EA827547EA867885F06C
:10352000004947EA8B77D2430432C0F84C52C0F8C6
:103530004C82C0F84C92C0F84C72F5D10029A1F130
:103540000101C9D1BFF34F8F016841F4803101609F
:103550000021BFF34F8FBFF36F8FBFF34F8FBFF3C8
:103560006F8FC0F83C12BFF34F8FBFF36F8F0168AE
:1035700041F400310160BFF34F8FBFF36F8F04B090
:10358000BDE8F08F0000000010B54CF22404C4F236
:103590000F04206840060CD40D20C0F2100000F08B
:1035A00057FF4AF6AB21CAF6AA21A0FB0101880801
:1035B00010E048F27020C4F20D000068C00605D487
:1035C00049F2E470C2F20000006803E043F20060D8
:1035D000C0F26E10216801F03F010131B0FBF1F043
:1035E00010BD000000000000FEE700000000000029
:1035F00049F67400C2F20000416800291EBF002095
:10360000C4F21D0002F064B94CF6AF6103A0C8F229
:10361000000140F66A2206F0F7FD00BF735F666C9A
:10362000657863616E48616E646C655B315D000056
:1036300049F67400C2F20000816800291EBF44F2FE
:103640000000C4F21D0002F043B94CF6AF6103A0C4
:10365000C8F2000140F6782206F0D6FD735F666C72
:10366000657863616E48616E646C655B325D000015
:1036700049F67400C2F20000C16800291EBF48F27A
:103680000000C4F21D0002F023B94CF6AF6103A0A4
:10369000C8F2000140F6862206F0B6FD735F666C44
:1036A000657863616E48616E646C655B335D0000D4
:1036B00048F27000C4F20D004FF480510160704771
:1036C00048F2E000C4F20D004FF4805101607047F1
:1036D00048F22000C4F20D00002101607047000094
:1036E00048F2A000C4F20D004FF480510160704711
:1036F00010B5172800F23B81DFE810F01800180021
:10370000250029003C005300620065007B008E000C
:103710009800A200AC00B600C900DC003B01E60046
:10372000F0004501FA000F0127015A0100F0CCFC1E
:103730004CF21401C4F20F010968C1F38221013176
:10374000B0FBF1F010BDBDE8104000F0B1BF00F0DB
:10375000BBFC4CF21401C4F20F010A68C2F38222CE
:103760000968C1F301210132B0FBF2F00131B0FB75
:10377000F1F010BD4CF21404C4F20F04A06840062E
:1037800000F1208100F0A0FC2168C1F38221013109
:10379000B0FBF1F02168C1F301210131B0FBF1F080
:1037A0008CE148F21000C4F20D00D0F86002C006AF
:1037B00000F1168149F2E470C2F20000006810BD09
:1037C0004FF4004010BD48F21001C4F20D0151F851
:1037D000100C800440F1F48051F8100C10F4404FAC
:1037E00000F07381002051F8102CD20300F168849E
:1037F0007BE248F21001C4F20D010868800440F138
:10380000DF80086810F4404F00F06F8100200A68E4
:10381000D20300F1558477E248F21000C4F20D00A3
:103820000168890400F1E1800021FFE248F2100004
:10383000C4F20D000168890400F1E280002104E374
:1038400048F21000C4F20D000168890400F1E38021
:10385000002109E348F21000C4F20D000168890458
:1038600000F1E48000210EE348F21001C4F20D01E2
:103870000869800440F1A480086910F4404F00F00A
:10388000438100200A69D20300F11A844AE248F217
:103890001001C4F20D01086A800440F19180086AA9
:1038A00010F4404F00F03F8100200A6AD20300F17B
:1038B000078445E248F21000C4F20D00016A890451
:1038C00000F1BF80002104E348F21000C4F20D00B3
:1038D000016A890400F1C080002127E348F210004A
:1038E000C4F20D00016A890400F1C18000214AE39D
:1038F00048F21001C4F20D01D1F8D000C0025FD52A
:10390000D1F8D00010F4404F00F01C810020D1F815
:10391000D020D20300F1D48338E248F21001C4F27F
:103920000D01D1F8D00080024AD5D1F8D00010F4B2
:10393000404F00F017810020D1F8D010C9035CBFC0
:1039400047F64000C0F27D1010BD48F21001C4F2ED
:103950000D01086E800433D5086E10F4404F00F05E
:10396000148100200A6ED20300F1AA832DE2002008
:1039700010BD48F21000C4F20D00016A890400F184
:103980008180002140E348F21001C4F20D01D1F81A
:10399000D000800414D5D1F8D00010F4404F00F0CE
:1039A0006C810020D1F8D020D20300F18983FDE2A0
:1039B00048F21001C4F20D01D1F8900080046CD4DB
:1039C000002010BD48F21000C4F20D00D0F86002D3
:1039D000C0066FD449F2E470C2F2000000686DE0E6
:1039E00043F20060C0F26E1010BD016811F4404F48
:1039F00000F0DA8000210268D20340F1128215E261
:103A0000016811F4404F00F0DE8000210268D2030B
:103A100040F1168219E2016811F4404F00F0E28093
:103A200000210268D20340F11A821DE2016811F4FC
:103A3000404F00F0E68000210268D20340F11E8270
:103A400021E2016A11F4404F00F0EA800021026A8D
:103A5000D20340F122823CE2016A11F4404F00F0AF
:103A6000EE800021026AD20340F144825EE2016AE4
:103A700011F4404F00F0F2800021026AD20340F1BD
:103A8000668280E2016A11F4404F00F00681002155
:103A9000026AD20340F19C82B6E2D1F8900010F4A1
:103AA000404F00F009810020D1F89020D20300F1AE
:103AB0000783BBE243F20060C0F26E10A16801F020
:103AC0003F010131B0FBF1F010BDD1F86002C0063A
:103AD00000F1028149F2E470C2F20000006851F87E
:103AE000102CD20300F1EC82FFE0D1F86002C00696
:103AF00000F1028149F2E470C2F2000000680A6835
:103B0000D20300F1DD82FFE0D1F86002C00600F1CF
:103B1000018149F2E470C2F2000000680A69D20330
:103B200000F1CE82FEE0D1F86002C00600F1008113
:103B300049F2E470C2F2000000680A6AD20300F1A0
:103B4000BF82FDE0D1F86002C00600F1168149F2A3
:103B5000E470C2F200000068D1F8D020D20300F176
:103B6000AF8213E1D1F86002C00600F1198149F279
:103B7000E470C2F200000068D1F8D010C9035CBF45
:103B800047F64000C0F27D1010BDD1F86002C006BB
:103B900000F1138149F2E470C2F2000000680A6E7D
:103BA000D20300F18D8210E1D0F86012C90600F155
:103BB000318149F2E471C2F2000109680268D2035E
:103BC00040F12F8132E1D0F86012C90600F1318155
:103BD00049F2E471C2F2000109680268D20340F1BF
:103BE0002F8132E1D0F86012C90600F1318149F22B
:103BF000E471C2F2000109680268D20340F12F812A
:103C000032E1D0F86012C90600F1318149F2E47165
:103C1000C2F2000109680268D20340F12F8132E14B
:103C2000D0F86012C90600F1318149F2E471C2F2A4
:103C300000010968026AD20340F12F8149E1D0F8FE
:103C40006012C90600F14F8149F2E471C2F200012D
:103C50000968026AD20340F14D8167E1D0F8601231
:103C6000C90600F16D8149F2E471C2F200010968F0
:103C7000026AD20340F16B8185E1D1F86002C0068F
:103C800000F18B8149F2E470C2F200000068D1F8C3
:103C9000D020D20300F1148288E1D0F86012C90666
:103CA00000F18F8149F2E471C2F200010968026AF1
:103CB000D20340F18D81A7E1D1F86002C00600F186
:103CC000AD8149F2E470C2F200000068D1F89020A2
:103CD000D20300F1F581A9E143F20060C0F26E1059
:103CE00051F8102CD20300F1EB8151F8101C01F0B7
:103CF0007F014843400810BD43F20060C0F26E10DF
:103D00000A68D20300F1DC81096801F00201143174
:103D1000484310BD43F20060C0F26E100A69D2033E
:103D200000F1CE81096901F002011431484310BD50
:103D300043F20060C0F26E100A6AD20300F1C08143
:103D400000EE100AB8EE400B91ED101AB8EE411BD0
:103D500021EE000B91ED141AB8EE411B096AC90758
:103D60004FF0160180EE010BBCEEC00B08BF142112
:103D700010EE102A01FB002010BD43F20060C0F2DB
:103D80006E10D1F8D020D20300F19A81D1F8D00082
:103D90004CF6304100F00C00C8F20001085810BD8C
:103DA00043F20060C0F26E10D1F8D010C9035CBFBE
:103DB00047F64000C0F27D1010BD43F20060C0F233
:103DC0006E100A6ED20300F17B8100EE100A0A6EBB
:103DD00002F07F03B8EE400B91ED1C1AB8EE411BC8
:103DE00021EE000B91ED201AB8EE411B80EE010B85
:103DF000BCEEC00B0A6E02F4C01210EE104AB2F50F
:103E0000002F03FB004000F03C81002A40F03A8183
:103E1000800837E143F20061C0F26E110268D203FC
:103E200004D4026802F0020214325143D0F8E000D8
:103E300051E043F20061C0F26E110268D20304D473
:103E4000026802F0020214325143D0F8E000DDE0D3
:103E500043F20061C0F26E110268D20304D402681A
:103E600002F0020214325143D0F8E00060E043F265
:103E70000061C0F26E110268D20304D4026802F03D
:103E8000020214325143D0F8E0007EE043F20061B8
:103E9000C0F26E11026AD2031BD400EE101AB8EE03
:103EA000400B90ED101AB8EE411B21EE000B90ED87
:103EB000141AB8EE411B026AD2074FF0160280EEC8
:103EC000010BBCEEC00B08BF142210EE103A02FB2F
:103ED0000131D0F8F00000F03F00B1FBF0F000EB52
:103EE000C000400010BD43F20061C0F26E11026AD2
:103EF000D2031BD400EE101AB8EE400B90ED101A4E
:103F0000B8EE411B21EE000B90ED141AB8EE411BE8
:103F1000026AD2074FF0160280EE010BBCEEC00B16
:103F200008BF142210EE103A02FB0131D0F8F00065
:103F3000C0F30540B1FBF0F000EBC000400010BD45
:103F400043F20061C0F26E11026AD2031BD400EE8C
:103F5000101AB8EE400B90ED101AB8EE411B21EE8E
:103F6000000B90ED141AB8EE411B026AD2074FF015
:103F7000160280EE010BBCEEC00B08BF142210EE3F
:103F8000103A02FB0131D0F8F000C0F30560B1FB3C
:103F9000F0F000EBC000400010BD43F20060C0F242
:103FA0006E10D1F8D020D20300F18A80D1F8D00071
:103FB0004CF6304100F00300C8F2000151F8200037
:103FC00010BD43F20061C0F26E11026AD2031BD42D
:103FD00000EE101AB8EE400B90ED101AB8EE411B2F
:103FE00021EE000B90ED141AB8EE411B026AD207C5
:103FF0004FF0160280EE010BBCEEC00B08BF14227E
:1040000010EE103A02FB0131D0F8F000C0F30520A9
:10401000B1FBF0F000EBC000400010BD43F20060C7
:10402000C0F26E10D1F89020D20349D400EE100AED
:10403000D1F8902002F07F03B8EE400B91ED281AE2
:10404000B8EE411B21EE000B91ED2C1AB8EE411B8E
:1040500080EE010BBCEEC00BD1F8902002F4C01230
:1040600010EE104AB2F5002F03FB004018D0C2B981
:104070008008D1F8601101F04041B1F1804F17D1B3
:104080001DE04008D1F8602148F20001C0F2800133
:104090000A40B2F5004F10D08A4211D1800810BDFD
:1040A0004008D1F8601101F04041B1F1804F06D0D5
:1040B000B1F1404F04D1800810BD400810BD400848
:1040C00010BD0000000000004CF21400C4F20F000C
:1040D00001688901416811D4C1F38141012917D0D8
:1040E00002291ED0032925D148F23001C4F20D0166
:1040F00051F8302C92044BD400225AE0C1F3013124
:10410000012921D002292ED0032936D1002197E19F
:1041100048F23000C4F20D000168890451D4002136
:1041200073E048F23000C4F20D000168890476D4CF
:10413000002198E048F23001C4F20D0108688004C3
:1041400000F19B800020704748F23001C4F20D015D
:10415000D1F84012C90600F1968049F2E471C2F22A
:10416000000109686CE148F23002C4F20D021168E6
:10417000890400F18D80002162E148F23002C4F22E
:104180000D0252F8201C890400F18C80002157E1B7
:1041900051F8302C12F4404F00F0B880002251F852
:1041A000303CDB0305D451F8301C01F07F01514352
:1041B0004A0850F8040C00F007000130B2FBF0F0A0
:1041C0007047016811F4404F78D000210268D20393
:1041D0001BD400EE101AB8EE400B90ED081AB8EEA2
:1041E000411B21EE000B90ED0C1AB8EE411B02684A
:1041F000D2074FF0160280EE010BBCEEC00B08BFD9
:10420000142210EE103A02FB0131D0F8D000C0F3B6
:104210000540B1FBF0F000EBC000400070470168C2
:1042200011F4404F57D000210268D2031BD400EE96
:10423000101AB8EE400B90ED081AB8EE411B21EEB3
:10424000000B90ED0C1AB8EE411B0268D2074FF03C
:10425000160280EE010BBCEEC00B08BF142210EE5C
:10426000103A02FB0131D0F8D00000F03F00B1FB62
:10427000F0F000EBC00040007047086810F4404FB9
:1042800053D00020ADE043F20061C0F26E11D7E0E0
:10429000116811F4404F2BD000211368DB0300F1AB
:1042A000CF8073E052F8201C11F4404F47D000211A
:1042B00052F8203CDB0300F1C380BBE0D0F8401291
:1042C000C9064AD449F2E471C2F2000109680268E1
:1042D000D2039AD47DE7D0F84012C90646D449F2F9
:1042E000E471C2F2000109680268D203BBD49EE700
:1042F000D2F84012C90642D449F2E471C2F2000178
:1043000009681368DB0300F19B803FE0D1F840228D
:10431000D20658D449F2E472C2F20002126851F88F
:10432000303CDB033FF545AF3DE7D1F84002C00626
:1043300053D449F2E470C2F20000006851E0D2F8B0
:104340004012C9066ED449F2E471C2F20001096854
:1043500052F8203CDB0373D46CE043F20061C0F2FE
:104360006E110268D2033FF550AF32E743F20061AD
:10437000C0F26E110268D2033FF575AF57E743F202
:104380000061C0F26E111368DB0359D400EE101AFD
:10439000B8EE400B92ED081AB8EE411B21EE000B6F
:1043A00092ED0C1AB8EE411B1268D2074FF01602BC
:1043B00080EE010BBCEEC00B08BF142210EE103AC9
:1043C00002FB01313CE043F20062C0F26E1251F890
:1043D000303CDB033FF5EDAEE5E643F20060C0F2B2
:1043E0006E100A68D20348BF704700EE100AB8EE9C
:1043F000400B91ED081AB8EE411B21EE000B91ED38
:104400000C1AB8EE411B0968C9074FF0160180EE7F
:10441000010BBCEEC00B08BF142110EE102A01FBEB
:104420000020704743F20061C0F26E1152F8203C48
:10443000DB0305D452F8202C02F00202143251435F
:104440000068C0F3C2600130B1FBF0F070470000BB
:104450008446030CD820C0F2040060F31F330CF034
:104460001F000122196802FA00F001422DD01868DD
:1044700048F2000210F4404FC4F20D0227D0002091
:104480001968C90300F10C810C21C0F270018C4540
:104490002BDD0C21C0F2E0018C4542DD0D20C0F285
:1044A000E000844500F0A8801420C0F2E0008445BC
:1044B00000F0AD801520C0F2E000844502BF47F651
:1044C0004000C0F27D10704788E000207047D2F8AD
:1044D0007002C0061CD449F2E470C2F20000006809
:1044E0001968C90300F1DC80CEE70C21C0F220017D
:1044F0008C454CDCBCF10D0F72D00D21C0F21001C7
:104500008C456BD1116901F00201143148437047A9
:1045100043F20060C0F26E101968C90300F1C08058
:10452000B2E70D21C0F270018C457AD00D21C0F2A6
:10453000A0018C4552D100EE100AD2F8A01001F073
:104540007F0CB8EE400B92ED2C1AB8EE411B21EE19
:10455000000B92ED301AB8EE411B80EE010BBCEE61
:10456000C00BD2F8A01001F4C01110EE103AB1F552
:10457000002F0CFB003076D0002975D18008D2F8CE
:10458000701101F04041B1F1804F74D189E00D21EB
:10459000C0F220018C4529D00D21C0F230018C459C
:1045A0001CD100EE100AB8EE400B92ED141AB8EED2
:1045B000411B21EE000B92ED181AB8EE411B116B56
:1045C000C9074FF0160180EE010BBCEEC00B08BF0F
:1045D000142110EE102A01FB0020704700207047C4
:1045E000116801F07F01484340087047116A01F0EB
:1045F00002011431484353E0D2F8E0004CF6304158
:1046000000F00300C8F2000151F820007047D2F812
:10461000E0004CF6304100F00C00C8F200010858F0
:10462000704700EE100A116F01F07F0CB8EE400BDE
:1046300092ED201AB8EE411B21EE000B92ED241AE8
:10464000B8EE411B80EE010BBCEEC00B116F01F404
:10465000C01110EE103AB1F5002F0CFB003010D055
:1046600081B980080EE04008D2F8701101F0404195
:10467000B1F1804F15D0B1F1404F18BF704780089D
:104680007047400848F20001D2F87021C0F2800162
:104690000A40B2F5004F06D08A4201D18008704727
:1046A0007047400870474008704700000000000055
:1046B00010B54CF21404C4F20F042068400602D472
:1046C000FFF702FD54E02068000648F21000C4F233
:1046D0000D0004D4016A890406D4002128E0016891
:1046E00089042FD400213AE0016A11F4404F46D0EA
:1046F0000021026AD2031BD400EE101AB8EE400B60
:1047000090ED101AB8EE411B21EE000B90ED141A3B
:10471000B8EE411B026AD2074FF0160280EE010B81
:10472000BCEEC00B08BF142210EE103A02FB0131A0
:10473000D0F8F000C0F30540B1FBF0F000EBC00092
:10474000400015E0016811F4404F25D000210268B7
:10475000D20304D4026802F0020214325143D0F8AA
:10476000E000C0F30520B1FBF0F000EBC00040001A
:104770002168C1F302410131B0FBF1F010BDD0F866
:104780006012C90615D449F2E471C2F20001096849
:10479000026AD203B0D5CBE7D0F86012C90610D4B4
:1047A00049F2E471C2F2000109680268D203D1D56E
:1047B000D5E743F20061C0F26E11026AD2039BD5C5
:1047C000B6E743F20061C0F26E110268D203C1D5B0
:1047D000C5E700000000000048F20001C4F20D012E
:1047E0000A68037922F4E0329B039BB21A4402F573
:1047F00080320A6043F27F030A6800689A4300F03F
:104800007F00104400F5005008600868B0F1FF3FD9
:1048100009DD08680028A4BF0868002803DB0868D1
:10482000B0F1FF3FF1DC086820F480300860704789
:1048300058BB48F25010C4F20D004FF08041816027
:10484000D0F82011C9035CBFD0F820115FEAC13154
:1048500007D4D0F82011C90303D4D0F82011C9031C
:10486000EED54FF4803141600168090409D4016834
:1048700009045CBF01685FEA014102D401680904D0
:10488000F2D54FF480318160704702A005A19A22D1
:1048900005F0BAFC216279706173735874616C4FD2
:1048A000736300002E2E2F2E2E2F4C6962726172C0
:1048B0006965732F6E78705F6C6962726172696589
:1048C000732F6472697665732F66736C5F636C6FA8
:1048D000636B2E630000000048F27020C4F20D00EC
:1048E000016841F001010160704700000000000014
:1048F000002848F27420C4F20D004FF0100101D0DE
:10490000416070470160704749F67000C2F20000D4
:1049100001684CF20000C4F22B0000F009B800005E
:1049200080B5FFF7F1FFBFF34F8F80BD000000009F
:10493000B0B58269044612F4C010A26152D00D468F
:10494000B0F5C01F1AD1A06C20F00040A064A06890
:1049500020F48050A060287C002851D0E87B55F8D6
:104960002010A162297C022948D1411C012888BF5E
:10497000002155F82100E062002040E0E87B411C66
:10498000012888BF0021E973287C01382874D5F8F4
:1049900014C0BCF1000F05D0AB6940F65732204679
:1049A0002946E047287CF0B1A87B697B0A1A00F110
:1049B000030038BF421AAAB1687C2C22A97B0028C8
:1049C00055F8210008BF2822A050A87B411C0128CF
:1049D00088BF0021A973287C01302874687C80F08E
:1049E00001006874B0BDA06C20F00040A064A06815
:1049F00020F48050A0600020E874B0BD01206874ED
:104A0000A06840F48040A060A068400444BFA06853
:104A10005FEA404005D5A068400402D5A068400484
:104A2000F2D4A06840F48050A060A06C40F0004038
:104A3000A064B0BD00000000B0B549F21C0448F20B
:104A40002405C4F20E04C4F20E052088A868286864
:104A5000C00706D049F2E870C2F20000006800F01A
:104A600057FBB4F80002A8682868C00300D4B0BDA2
:104A700049F2E870C2F20000006CBDE8B04000F0FE
:104A800047BB000000000000B0B549F25C1448F2DA
:104A90002405C4F20E04C4F20E052088A868286814
:104AA000400506D549F2E870C2F20000806A00F0C5
:104AB0002FFBB4F80002A8682868400100D4B0BDFC
:104AC00049F2E870C2F20000806EBDE8B04000F02C
:104AD0001FBB000000000000B0B549F27C1448F292
:104AE0002405C4F20E04C4F20E052088A8682868C4
:104AF000000506D549F2E870C2F20000C06A00F075
:104B000007FBB4F80002A8682868000100D4B0BD13
:104B100049F2E870C2F20000C06EBDE8B04000F09B
:104B2000F7BA000000000000B0B549F29C1448F24A
:104B30002405C4F20E04C4F20E052088A868286873
:104B4000C00406D549F2E870C2F20000006B00F024
:104B5000DFFAB4F80002A8682868C00000D4B0BD2D
:104B600049F2E870C2F20000006FBDE8B04000F00A
:104B7000CFBA000000000000B0B549F2BC1448F202
:104B80002405C4F20E04C4F20E052088A868286823
:104B9000800406D549F2E870C2F20000406B00F0D4
:104BA000B7FAB4F80002A8682868800000D4B0BD45
:104BB00049F2E870C2F20000406FBDE8B04000F07A
:104BC000A7BA000000000000B0B549F2DC1448F2BA
:104BD0002405C4F20E04C4F20E052088A8682868D3
:104BE000400406D549F2E870C2F20000806B00F084
:104BF0008FFAB4F80002A8682868400000D4B0BD5D
:104C000049F2E870C2F20000806FBDE8B04000F0E9
:104C10007FBA000000000000B0B549F2FC1448F271
:104C20002405C4F20E04C4F20E052088A868286882
:104C3000000406D549F2E870C2F20000C06B00F033
:104C400067FAB4F80002A8682868B0F1FF3FC8BF4F
:104C5000B0BD49F2E870C2F20000C06FBDE8B040DC
:104C600000F056BA00000000B0B549F23C0448F22A
:104C70002405C4F20E04C4F20E052088A868286832
:104C8000800706D549F2E870C2F20000406800F0E3
:104C90003FFAB4F80002A8682868800300D4B0BDC9
:104CA00049F2E870C2F20000406CBDE8B04000F08C
:104CB0002FBA000000000000B0B549F25C0448F2D1
:104CC0002405C4F20E04C4F20E052088A8682868E2
:104CD000400706D549F2E870C2F20000806800F093
:104CE00017FAB4F80002A8682868400300D4B0BDE1
:104CF00049F2E870C2F20000806CBDE8B04000F0FC
:104D000007BA000000000000B0B549F27C0448F288
:104D10002405C4F20E04C4F20E052088A868286891
:104D2000000706D549F2E870C2F20000C06800F042
:104D3000EFF9B4F80002A8682868000300D4B0BDF9
:104D400049F2E870C2F20000C06CBDE8B04000F06B
:104D5000DFB9000000000000B0B549F29C0448F241
:104D60002405C4F20E04C4F20E052088A868286841
:104D7000C00606D549F2E870C2F20000006900F0F2
:104D8000C7F9B4F80002A8682868C00200D4B0BD12
:104D900049F2E870C2F20000006DBDE8B04000F0DA
:104DA000B7B9000000000000B0B549F2BC0448F2F9
:104DB0002405C4F20E04C4F20E052088A8682868F1
:104DC000800606D549F2E870C2F20000406900F0A2
:104DD0009FF9B4F80002A8682868800200D4B0BD2A
:104DE00049F2E870C2F20000406DBDE8B04000F04A
:104DF0008FB9000000000000B0B549F2DC0448F2B1
:104E00002405C4F20E04C4F20E052088A8682868A0
:104E1000400606D549F2E870C2F20000806900F051
:104E200077F9B4F80002A8682868400200D4B0BD41
:104E300049F2E870C2F20000806DBDE8B04000F0B9
:104E400067B9000000000000B0B549F2FC0448F268
:104E50002405C4F20E04C4F20E052088A868286850
:104E6000000606D549F2E870C2F20000C06900F001
:104E70004FF9B4F80002A8682868000200D4B0BD59
:104E800049F2E870C2F20000C06DBDE8B04000F029
:104E90003FB9000000000000B0B549F21C1448F210
:104EA0002405C4F20E04C4F20E052088A868286800
:104EB000C00506D549F2E870C2F20000006A00F0B1
:104EC00027F9B4F80002A8682868C00100D4B0BD72
:104ED00049F2E870C2F20000006EBDE8B04000F098
:104EE00017B9000000000000B0B549F23C1448F2C8
:104EF0002405C4F20E04C4F20E052088A8682868B0
:104F0000800506D549F2E870C2F20000406A00F060
:104F1000FFF8B4F80002A8682868800100D4B0BD8A
:104F200049F2E870C2F20000406EBDE8B04000F007
:104F3000EFB800000000000010B588B0CDE90031E6
:104F400000218DF81820ADF80810012A8DF80A000C
:104F500040F20110ADF80B002FD140F2BC146846AE
:104F6000C2F200040790204640F8041FC4E9021171
:104F7000C4E90410C4E9061104A9206003F0C4FBCD
:104F8000F8B9606904F1180103F012FC28BB6069EC
:104F900004F11C0103F0E4FB002802BF002008B06C
:104FA00010BD4DF25B104DF2FC01C8F20000C8F2DA
:104FB000000140F26B2205F027F943F2215008B0BE
:104FC00010BD4DF25B104DF2FC01C8F20000C8F2BA
:104FD00000014FF4157205F017F94DF25B104DF218
:104FE000FC01C8F20000C8F200014FF4187205F08D
:104FF0000BF90000000000002DE9F041012B1BDB44
:105000001C4616460A680D460746B8B140F2BC1069
:10501000C2F2000000F11808501C7F2805D9404654
:10502000394603F0E9FB00222A60BE54013C28689F
:1050300000F101022A60EFD1BDE8F081002000BF3D
:1050400011184B1C7F2B19D8471C2B60A742F3DA91
:105050008B1C7F2B12D8871C2B60A742ECDACB1C51
:105060007F2B0BD8C71C2B60A742E5DA04317F29C0
:1050700004D804302960A042E2DBDDE74DF2501095
:105080004DF2FC01C8F20000C8F2000140F26D12BE
:1050900005F0BAF80000000083B0B0B5A1B06D46CD
:1050A000CDE926230446259180212846FDF7B4FD4D
:1050B00042F6811325A9C8F20003209120462A4612
:1050C00003F03EFC98B1044640F2BC10C2F200006E
:1050D00018306946224603F08FFB002818BF4FF0B6
:1050E000FF34204621B0BDE8B04003B070474DF218
:1050F00046104DF2FC01C8F20000C8F200014FF466
:10510000B77205F081F80000FEE700000000000023
:1051100070B500284DD00446017CC068A268002804
:10512000D17727D002EB411141F2180241F21C0362
:105130008A58C95A101A400911F0800604D1002873
:1051400008BF94F914000138C1B294F911209142BA
:1051500006D1E17C227D914218D194F9133016E0FA
:1051600094F911208B1AB3F1FF3F10DC94F914105D
:105170000B440CE0D4F800C0BCF1000FD2D00122E7
:10518000616800232046BDE87040604700236074DA
:10519000E07CC01AE074256835B13246002E18BF95
:1051A000012261682046A84716B1207CA1680877D3
:1051B00070BD4CF6D0504CF6DF51C8F20000C8F27A
:1051C000000140F2BE4205F01FF8000000000000A0
:1051D00044F20000C4F22D0000F002B8000000000C
:1051E0002DE9F04381B048F20001D0F80490C4F2F8
:1051F0002D010446884214D044F20000C4F22D0070
:10520000844208D0002C40F07F804FF0010819F054
:10521000406F0BD124E04FF0020819F0406F05D128
:105220001EE04FF0000819F0406F19D049F66800F1
:10523000C2F2000050F82850002D71D0606810F0C4
:10524000406F0DD04FF040676760EE6926B12B6A62
:10525000012220462946B047606810F0406FF3D124
:1052600019F0407F1AD049F66800C2F2000050F8E9
:105270002850002D60D0606810F0407F0ED04FF0B5
:10528000407700BF6760EE6926B12B6A0022204696
:105290002946B047606810F0407FF3D10020C6F285
:1052A0007C0019EA000F2CD049F66801C2F2000117
:1052B00051F8281000294BD0626892030ED462681E
:1052C00010406060D1F81CC0BCF1000F19D00B6A0F
:1052D0000222204601B0BDE8F04360474FF40030A1
:1052E0006060606A20F00C006062D1F81CC0BCF104
:1052F000000F06D00B6A0322204601B0BDE8F04340
:10530000604701B0BDE8F0834CF60F604CF63261A7
:10531000C8F20000C8F200014FF49D7204F074FF5F
:105320004CF6E3404CF63261C8F20000C8F20001CE
:1053300040F6963204F068FF4CF6E3404CF63261DA
:10534000C8F20000C8F2000140F6D73204F05CFF5A
:105350004CF6E3404CF63261C8F20000C8F200019E
:1053600040F6024204F050FF48F20000C4F22D0063
:10537000FFF736BF00000000F0B581B0844600683A
:1053800000F07F008842C0F0CB80002A00F0D4807B
:10539000DCF80000800009D5DCF834000723C0F3F6
:1053A000036003EB4000884280F0D280DCF8000C00
:1053B000C0F30143DCF8000CC0F301460CF180009F
:1053C000012E23D0022E12D0032E34D144F62516FE
:1053D000C2F29246A1FB06654E1B05EB5606B608C7
:1053E000A6EBC6052944CDB27602ED001EE04AF6D2
:1053F000AB26CAF6AA26A1FB0665EE0806EB460513
:10540000A1EB8501CDB27602AD000FE046F2871622
:10541000C8F21866A1FB06654E1B05EB5606360959
:10542000152506FB15117602CDB26D0055FA81F1F6
:1054300006EBC10100E009018C0800EB840150F883
:1054400024504968C5F3036E4EF00406062E22D19F
:10545000D2E9007661F31C06B90D61F39F55012175
:10546000156000255660102645F00107FFB2BB42CB
:1054700016D345F00207FFB2BB4214D345F0030731
:10548000FFB2BB4212D10435EFB206EA0111BB42B2
:10549000EAD269B93BE00120DCF8081001B0F0BDA8
:1054A000490029B933E0890011B930E0C90071B36E
:1054B000A31C0025002400BF44F00106F6B25F19CA
:1054C00002EB850550F82770B142AF601FD944F058
:1054D0000205EDB29F1902EB860650F82770A9422B
:1054E000B76014D944F00306F6B25F1902EB8505E4
:1054F00050F82770B142AF6009D90434E5B29F1962
:1055000002EB860650F82770A942B760D4D8BEF1E6
:10551000020018BF41F2B940DCF8081001B0F0BD3C
:105520004CF662604CF6AF61C8F20000C8F20001B0
:1055300040F29A6204F068FE4CF6E2604CF6AF610D
:10554000C8F20000C8F2000140F29B6204F05CFE69
:105550004CF68C604CF6AF61C8F20000C8F2000156
:1055600040F29C6204F050FEB0B58646006800F040
:105570007F00884233D3F2B3DEF80000800008D504
:10558000DEF834000723C0F3036003EB40008842D9
:105590003DD20EF1800308011858C0F3036C4CF0A3
:1055A0000404062C17D103EB01114B68D2E9005417
:1055B00063F31C04AB0D63F39F50C2E900048868D9
:1055C0009060BCF10200C968D16018BF41F2B940D7
:1055D000DEF80810B0BD0120DEF80810B0BD4CF6B2
:1055E00062604CF6AF61C8F20000C8F200014FF4EF
:1055F000CA6204F009FE4CF6E2604CF6AF61C8F2F4
:105600000000C8F2000140F2516204F0FDFD4CF6CA
:105610008C604CF6AF61C8F20000C8F2000140F2A5
:10562000526204F0F1FD0000B0B5036803F07F039F
:105630008B42C0F0A38003689B0008D5436B07250D
:10564000C3F3036305EB43038B4280F0A380D0F8E0
:10565000003C00F1800EC3F30143D0F8005CC5F3B9
:105660000145012D23D0022D12D0032D34D144F653
:105670002510C2F29240A1FB0005481B05EB50002B
:105680008008A0EBC0052944CDB24002ED001EE029
:105690004AF6AB20CAF6AA20A1FB0005E80800EBF9
:1056A0004005A1EB8501CDB24002AD000FE046F20E
:1056B0008710C8F21860A1FB0005481B05EB5000DD
:1056C0000009152500FB15114002CDB26D0055FAF9
:1056D00081F100EBC10000E008014FEA900C002AC4
:1056E00018BF4FF0006201214EF82C20002010223C
:1056F00040F00104E4B2A34210D340F00204E4B24B
:10570000A3420DD340F00304E4B2A3420AD1043013
:10571000C4B202EA0111A342EAD204E0490002E065
:10572000890000E0C9000EEB8C00002500294560CF
:1057300023D00CF102030022002000BF40F001043E
:10574000E4B21A44A1424EF8225016D940F00202A7
:10575000D2B21C4491424EF824500ED940F00304BA
:10576000E4B21A44A1424EF8225006D90430C2B223
:105770001C4491424EF82450E0D8B0BD4CF6626013
:105780004CF6AF61C8F20000C8F200014FF4866227
:1057900004F03AFD4CF68C604CF6AF61C8F20000A4
:1057A000C8F2000140F2314204F02EFD000000007A
:1057B00010B500294DD0036803F07F03934254D302
:1057C00003689B0007D5436BC3F3036C072303EB0C
:1057D0004C03934261D24FF0010CA2F1200E0CFA5F
:1057E00002F3BEF1000FA8BF0023846A24EA03037A
:1057F000C2F1200483622CFA04F3A8BF0CFA0EF362
:10580000446A24EA030301EB820443620023A36099
:10581000036803F07F03934233D303689B0007D5EB
:10582000436B0724C3F3036304EB4303934240D267
:1058300000EB02104FF00063C0F880300023C0F886
:105840008430C0F88830C0F88C30881880F80C326A
:1058500010BD4CF6E3404CF6AF61C8F20000C8F250
:10586000000140F60C1204F0CFFC4CF662604CF6DE
:10587000AF61C8F20000C8F2000140F60D1204F05A
:10588000C3FC4CF662604CF6AF61C8F20000C8F28F
:1058900000014FF47C7204F0B7FC4CF68C604CF6BF
:1058A000AF61C8F20000C8F2000140F60E1204F029
:1058B000ABFC4CF68C604CF6AF61C8F20000C8F24D
:1058C000000140F2F13204F09FFC000000000000F3
:1058D0002DE9F04F85B0002900F0698240F2060EF4
:1058E000066A8C46049105460127C0F2030EE7E1E3
:1058F000F0073BD1002600BFC6F1200027FA00FACE
:1059000007FA06F9A6F120085046494607FA08FBAF
:10591000B8F1000FA8BF58462A6BA8BF0021EB6A58
:1059200011401840084305D01F2E07D8A86A10EA76
:10593000090F07D10136402EDED3E1E1686A10EA93
:105940000B0FF7D09CF84C02C8B1B9F1800F16DCF0
:10595000B9F1200F00F0A680B9F1800F00F0BC80F3
:10596000B9F1400F24D141F2BD427AE12F6241F2F8
:10597000BF42DCF80040002C40F0AD81B6E10CEBFA
:10598000060292F80C020138032811D8DFE800F073
:105990000223135D039274462868000500F19F807E
:1059A0000CEB8600F1B282682846FFF7DDFD9EE031
:1059B0004FF4A65255E12868000500F1CA80F2B202
:1059C000284661467446FFF7F3FEA646DDF810C090
:1059D00041F2B54245E10CEB860003920290F1B230
:1059E000826828467446FFF7BFFD0246002808BFBC
:1059F00041F2B842286800F07F00B042C0F08F81C9
:105A00002868A646800008D5686B0721C0F30360AC
:105A100001EB4000B04280F08E814846B8F1000FA3
:105A2000A8BF0020A96A21EA00005146A862A8BFC9
:105A30005946686A88436862002002998860039921
:105A400081F80C02DDF810C00BE1022082F80C0294
:105A500028682968000501F07F0000F1B280B0429B
:105A6000C0F05D812868800008D5686B0721C0F30D
:105A7000036001EB4000B04280F05D814846B8F120
:105A8000000FA8BF0020A96A21EA00005146A862C1
:105A9000A8BF5946686A884368620CEB86000021FB
:105AA0008160B1E0DCF80802002800F02C81296850
:105AB000890000F1E48001222868800008D5A86AE6
:105AC00020F0E000A862686A68620020CCF8080252
:105AD00000208CF84C02C4E041F2BC42C1E00CEB67
:105AE0008600F1B2D0F808212846FFF745FC0246AF
:105AF000002808BF41F2B8422868A6462968000578
:105B000001F07F0000F18580B042DDF810C0C0F0E8
:105B100006812868800008D5686B0721C0F3036000
:105B200001EB4000B04280F006814846B8F1000F1A
:105B3000A8BF0020A96A21EA00005146A862A8BFB8
:105B40005946686A884368620CEB860000218160D0
:105B500084E0286800F07F00B042C0F0F880039233
:105B60002868800008D5686B0721C0F3036001EB4B
:105B70004000B04280F0F7804846B8F1000FA8BF5F
:105B80000020A96A4FF0000421EA00005146A862F3
:105B9000A8BF5946686A884368620CEB8600F1B278
:105BA000C0F8084101222846FFF73EFDDDE9030C5D
:105BB00040F2060E80F80C4241F2B542C0F2030EEC
:105BC0004FE0B042C0F0DB802868800008D5686BE9
:105BD0000721C0F3036001EB4000B04280F0DB809E
:105BE0004846B8F1000FA8BF0020A96A21EA0000CA
:105BF0005146A862A8BF5946686A884368620CEBA0
:105C000086000021C0F8081182F80C1241F2B64259
:105C100027E0B042DDF810C0C0F0B18028688000F5
:105C200008D5686B0721C0F3036001EB4000B04268
:105C300080F0B1804846B8F1000FA8BF0020A96AE3
:105C400021EA00005146A862A8BF5946686A884305
:105C500068620CEB86000021C0F80811039880F8F8
:105C60000C12B8F1000FA4BF4FF00009DA46C5F8D6
:105C70003090C5F82CA0DCF8004064BB36E0D5F8C5
:105C80008010D5F88420090C436862F31C03026875
:105C900061F31542C0E90023D5F888106FF3DF5295
:105CA0008160D5F88C10C160E96C61F3DE5202604E
:105CB00041F2BB42A868286880007FF509AFFEE684
:105CC00016EA0E0F3FF414AEC5F820E041F2BE42D2
:105CD000DCF8004054B1DCF804006146009028462E
:105CE00033467646A047B646DDF810C02E6A0EF160
:105CF0000101286B0E42E96A08BF50EA0100DFD1BA
:105D000005B0BDE8F08F4CF6E2604CF6AF61C8F22A
:105D10000000C8F2000140F2F16204F075FA4CF69E
:105D200062604CF6AF61C8F20000C8F2000140F6B4
:105D3000621204F069FA4CF68C604CF6AF61C8F25E
:105D40000000C8F2000140F6631204F05DFA4CF660
:105D500062604CF6AF61C8F20000C8F2000140F684
:105D60002E1204F051FA4CF68C604CF6AF61C8F27A
:105D70000000C8F2000140F62F1204F045FA4CF67C
:105D800062604CF6AF61C8F20000C8F2000140F654
:105D9000451204F039FA4CF68C604CF6AF61C8F24B
:105DA0000000C8F2000140F6461204F02DFA4CF64D
:105DB000E3404CF6AF61C8F20000C8F2000140F6C3
:105DC000971204F021FA000010B540F2B004C2F2BC
:105DD0000004216811B1A06822699047616821B16F
:105DE000E0686269BDE81040104710BD0000000087
:105DF00010B540F2B004C2F20004216811B1A068ED
:105E000022699047616821B1E0686269BDE810408D
:105E1000104710BD0000000010B540F2B004C2F2FF
:105E20000004216811B1A06822699047616821B11E
:105E3000E0686269BDE81040104710BD0000000036
:105E4000CA070BD042694FF0FF3303FA02F203692D
:105E5000D243D0F800C09A40CCF81020890758BF30
:105E6000704741694FF0FF3202FA01F10269C943FC
:105E7000006891404161704708F0EAB800000000F6
:105E800040F20000C2F2000080684FF4803181616E
:105E90007047000000000000B0B543F6FF73C4F285
:105EA0001C03984214DD43F6FF73C4F200239842AA
:105EB00023DD44F20003C4F2002398422FD048F2BD
:105EC0000003C4F2002398422CD14FF0080C45E0A7
:105ED0004BF6FF73C4F21B03984217DC0023C4F295
:105EE0000C0398422FD048F20003C4F21B039842DF
:105EF00040F0AA804FF0010C30E044F20003C4F2FD
:105F00001C03984218D14FF0040C27E04CF2000318
:105F1000C4F21B03984219D14FF0020C1EE04FF05F
:105F2000070C1BE04CF20003C4F20023984240F03F
:105F30009D804FF0090C11E0B0F1844F40F0968045
:105F40004FF0060C0AE04FF0050C07E00023C4F206
:105F50001C03984240F08A804FF0030C47A333F9AA
:105F60001C304CF2680EC4F20F0E03F01F0C1B0A1B
:105F700003245EF8235004FA0CF425434EF8235012
:105F8000012303FA01FC436923EA0C0343611378FC
:105F9000002B6FEA0C0310D020295CD292F801E0AC
:105FA000046844EA0C05BEF1000F08BF04EA0305CB
:105FB0000560456845EA0C0501E045681D404560FF
:105FC0009578C26902EA0304B1F110034FF01002A0
:105FD00038BF0C22102938BF0B46691E0429C46142
:105FE00011D8DFE801F00325111D0C00590003232F
:105FF00003FA01F1835823EA01018150B0BDC16960
:1060000041EA0C01C161B0BD5900855803238B40A2
:1060100025EA0303022505FA01F119438150B0BDB9
:106020005900032303FA01F1835819438150B0BD8D
:106030005900855803238B4025EA0303012505FAFF
:1060400001F119438150B0BD80B90FA011A14FF4E7
:10605000757204F0D9F84CF6EA604CF6F361C8F2B8
:106060000000C8F200016B2204F0CEF84CF6F36198
:1060700015A0C8F20001392204F0C6F8FFFF1A018A
:106080001E001A020C031E01696E646578203C3DF7
:10609000203700002E2E2F2E2E2F4C696272617237
:1060A0006965732F6E78705F6C6962726172696581
:1060B000732F6472697665732F66736C5F636C6FA0
:1060C000636B2E6800000000696E7374616E636517
:1060D000203C2041525241595F53495A4528735F31
:1060E0006770696F426173657329000000000000EA
:1060F000B0B586B0002841D00D46002949D00446ED
:10610000287B09284DD2002856D001A800F054FF62
:10611000287A69680128019101D1022004E002284F
:1061200001D1032000E000208DF80800687AA97AE8
:106130000138EA7AB0FA80F0400900298DF80B00A6
:1061400018BF01218DF81510002A18BF0122287BE5
:106150004CF640418DF81420C8F2000151F820009F
:1061600001A92A6800F044FF18B142F6AF7006B0EA
:10617000B0BD287B2070002006B0B0BD4CF6E340D7
:106180004CF69151C8F20000C8F20001E12204F07F
:106190003BF84CF6915116A0C8F20001E22204F03F
:1061A00033F84CF643504CF69151C8F20000C8F257
:1061B0000001E32204F028F84CF6915102A0C8F245
:1061C0000001E42204F020F8735F4C707561727472
:1061D00041646170746572426173655B636F6E6682
:1061E00069672D3E696E7374616E63655D000000C2
:1061F000636F6E666967000080B500280CD0B9B186
:1062000012B300784CF64043C8F2000353F8200064
:1062100001F0D6FB002080BD4CF6E3404CF69151D6
:10622000C8F20000C8F2000140F2531203F0ECFF84
:106230004CF68C504CF69151C8F20000C8F20001A7
:106240004FF4AA7203F0E0FF4CF6EA404CF691518D
:10625000C8F20000C8F2000140F2551203F0D4FF6A
:10626000FEE7000000000000B0B50024C4F23F04C7
:10627000206940F2C805C007C2F2000505D02868B1
:1062800018B1E968204600F06FF8D4F81001C00793
:1062900007D0686828B1296A2046BDE8B04000F000
:1062A0008FB9B0BD00000000B0B544F20004C4F2E4
:1062B0003F04206940F2C805C007C2F2000505D0BE
:1062C000286818B12969204600F04EF8D4F810016A
:1062D000C00707D0686828B1696A2046BDE8B040A9
:1062E00000F06EB9B0BD0000B0B548F20004C4F2D1
:1062F0003F04206940F2C805C007C2F2000505D07E
:10630000286818B16969204600F02EF8D4F8100109
:10631000C00707D0686828B1A96A2046BDE8B04028
:1063200000F04EB9B0BD0000B0B54CF20004C4F2AC
:106330003F04206940F2C805C007C2F2000505D03D
:10634000286818B1A969204600F00EF8D4F81001A9
:10635000C00707D0686828B1E96A2046BDE8B040A8
:1063600000F02EB9B0BD0000F0B581B0002900F0FA
:106370000B810D78002D00F00781426912F47053F3
:106380000CD0950418D415051ED4550500F1E480F1
:10639000D20440F1098140F28732DFE0C36D9205FB
:1063A000C46D03F00703C4F3024CC3F1040306D425
:1063B00001224FF4007E0FE040F28A32CEE04FF02F
:1063C000010E4FF400746DE040F28932C6E00525FD
:1063D000C0F860E0013B0D706C1E042C00F2D88008
:1063E000DFE804F003263A1FD200002B00F0CC8037
:1063F0004C68013B34F8025B05664D884C60013DFA
:106400002C044D804FF00105E6D1CC6A002C41D020
:1064100003250D708E7F8F6A012E4F604C80DBD17B
:1064200014E00C7E640700F1B180002BCFD1ABE00B
:10643000002B00F0A980CC6A0325013C62F31F24E5
:10644000013B04668C7F0D70012CC5D18469032546
:1064500024F001048461BFE78C7F5CB1BCF1000FC4
:1064600000F09280046FACF1010C4D686E1C4E6020
:106470002C7008E0002B00F087804C68013B651C05
:106480004D60247804664C88013C25044C8001D082
:106490000D78A1E704250D709EE705250466013BF4
:1064A0000D7000BF013D042D72D80022DFE805F019
:1064B0000323361D5B00002B66D04A68013B32F88F
:1064C000025B05664D884A60013D2A044D804FF00D
:1064D0000105E7D1CA6AE2B303250D708E7F8F6A8A
:1064E000012E4F604A80DDD112E00A7E52074DD462
:1064F000002BD2D148E0002B46D0CA6A0325013ACE
:106500006EF31F22013B02668A7F0D70012AC9D1FA
:106510008269032522F001028261C3E78A7F52B1BA
:10652000BCF1000F30D0026FACF1010C4D686E1C55
:106530004E602A7006E03BB34A68013B551C4D6033
:10654000127802664A88013A15044A8001D00D7813
:10655000A8E704250D70A5E740F286324361036980
:1065600043F440730361836943F60367BB4383616C
:106570000023D1F830C0BCF1000F0B7004D04B6B7E
:1065800001B0BDE8F040604701B0F0BD0022EAE78D
:106590004CF654704CF62371C8F20000C8F20001AA
:1065A00040F27E4203F030FE4CF654704CF62371FC
:1065B000C8F20000C8F20001F52203F025FE000039
:1065C000F0B581B0002900F0B380D0F814610C461A
:1065D000054616F440600AD020217205217000F1B2
:1065E0009380310540F1A68040F287318EE016F4A9
:1065F000407026D01021002316F4807708BF202198
:106600002170002F6370E269E360226108BF237587
:10661000637D1BB1013A2261002262750027C5F833
:106620001401C5F85471A069084205D0236A1BB152
:10663000626A284621469847C4E90077C4E9027790
:10664000276170070DD501202070D5F85001217EFB
:106650006070C90705D0236A1BB1626A28462146CB
:10666000984730070AD5207E08212170000705D5FC
:10667000236A1BB1626A284621469847F00720D05A
:10668000606801210028617501D0A16869B9236A99
:106690000221002B217004D0626A284621469847C7
:1066A000606800210028E1610BD0A16849B1421C5B
:1066B00062600078C5F86001481EE169A060481C6E
:1066C000E061B00734D5606808B1A16869B9236A90
:1066D0000421002B217004D0626A28462146984785
:1066E000606800210028E1611FD0A168E9B1D5F8F8
:1066F0007011421C62600170A068E1690138A060FD
:10670000481CE06101B0F0BD4FF46271C5F814019E
:10671000207EE16080060BD5236A4BB1626A284671
:10672000214601B0BDE8F04018470120C5F85401EA
:1067300001B0F0BD4CF654704CF62371C8F2000065
:10674000C8F2000140F2296203F05EFD0000000083
:1067500049F68400C2F20000416851B144F20000E1
:10676000C4F23900426AD20701D100F025BA00F024
:1067700023B94CF65A7103A0C8F2000140F2D3725B
:1067800003F042FD735F6C7073706948616E646CF6
:10679000655B315D0000000049F68400C2F2000034
:1067A000816851B148F20000C4F23900426AD20750
:1067B00001D100F001BA00F0FFB84CF65A7103A005
:1067C000C8F2000140F2DB7203F01EFD735F6C70D3
:1067D00073706948616E646C655B325D0000000037
:1067E00049F68400C2F20000C16851B14CF20000C9
:1067F000C4F23900426AD20701D100F0DDB900F0DD
:10680000DBB84CF65A7103A0C8F2000140F2E37203
:1068100003F0FAFC735F6C7073706948616E646CAE
:10682000655B335D0000000049F68400C2F20000A1
:10683000016949B10020C4F23A00426AD20701D18D
:1068400000F0BAB900F0B8B84CF65A7103A0C8F21B
:10685000000140F2EB7203F0D7FC00BF735F6C7075
:1068600073706948616E646C655B345D00000000A4
:10687000002837D0013903293DD8DFE801F002199B
:10688000040D007870470178DAB1427880781202FE
:1068900042EA0141084470470178CAB142788378DE
:1068A0001204C07842EA016141EA032108447047BA
:1068B0000178002A40780CBF41EA002040EA01201C
:1068C00070474278807841EA022141EA00407047EF
:1068D00042788378C07841EA022141EA034141EAE3
:1068E000006070474CF65A7109A0C8F2000140F2EE
:1068F000157203F089FC4CF654704CF65A71C8F2CC
:106900000000C8F2000140F2617203F07DFC00BF9C
:106910007478446174610000B0B5002940D00C4621
:10692000054600BFE86DE17800F01F00884236D2CE
:10693000E069A169E278401A904201D3E06870BB37
:106940002069617988423CBF20696071A06848B1C4
:10695000A0686179A278FFF78BFF6179A268114482
:10696000A16000E0606A6866A0690138A061607992
:106970002169081A206120690028D3D1207870B1DC
:10698000E86DE17800F01F00884206D2286E20F4FE
:106990008010286600206070B0BD01206070B0BD1E
:1069A0004CF6E3404CF65A71C8F20000C8F2000100
:1069B00040F2574203F028FCB0B5002900F09C805B
:1069C0000446C8680D46002845D0686970B3A069C0
:1069D00020F00200A061E06D10F4F81F1CBF686990
:1069E00000281DD0616FE8690138E8616869AA79FB
:1069F00090423CBF6869A871E868AA79AB7800F05A
:106A000087F8A879E9680844E860A8796969081AEC
:106A10006861E06D10F4F81F1CBF68690028E1D1BF
:106A2000686918B1A06940F00200A061E86929799D
:106A3000884210D8A06DE96920F47020022907D39C
:106A4000E9694FF4702202EB014101F4702100E08A
:106A500000210843A065286930B120462946FFF788
:106A60005BFF2869A0B911E0E06DE97800F01F0034
:106A7000884209D2287838B1687828B1206E20F48D
:106A80008010206600206870286908B9686900B124
:106A9000B0BD6878002818BFB0BDE86868B1A069CB
:106AA00043F603718843A061002085F82800D5F8DB
:106AB0002CC0BCF1000F18D1EAE760694005A0695D
:106AC00007D440F48060A061A06920F00300A061B9
:106AD000B0BD43F603718843A061002085F828000B
:106AE000D5F82CC0BCF1000FD2D02B6B0022204671
:106AF0002946BDE8B04060474CF6E3404CF65A7179
:106B0000C8F20000C8F2000140F2EA4203F07CFB48
:106B1000002835D0A2F1010CBCF1030F39D8DFE811
:106B20000CF006020810EBB10A0A00F8012B017004
:106B3000704783B10A0C02700A0A42700230017079
:106B40007047A3B10A0E02700A0C42700A0A8270E2
:106B50000330017070470A0A017042700230090C5C
:106B60000170704700F8011B090A017070470A0A9A
:106B7000017042700A0C82700330090E0170704778
:106B80004CF65A7109A0C8F2000140F2697203F094
:106B90003BFB4CF654704CF65A71C8F20000C8F238
:106BA000000140F2B27203F02FFB00BF7278446123
:106BB0007461000000000000B0B5002900F0E6801C
:106BC0000546C8680C46002854D1206900286AD0C0
:106BD000A068002867D000BFE86D617800F01F0052
:106BE000884261D22069E17888423CBF2069E07028
:106BF000A068E1782278FFF73BFEE178A2681144B3
:106C0000A160E1782269511A216168662069002833
:106C1000E2D149E0696FE0690138E0616069227999
:106C200090423CBF60692071E06822792378FFF7C9
:106C30006FFF2079E1680844E06020796169081AF3
:106C400060612069B0B1A068A0B12069E178884294
:106C50003CBF2069E070A068E1782278FFF708FE69
:106C6000E178A2681144A160E1782269511A21619A
:106C7000686600BF606900281CBFE86D10F4F81F4B
:106C8000C8D1E069A17888420ED8A86DE16920F4E6
:106C9000702002292DD3E1694FF4702202EB0141EB
:106CA00001F4702126E000BF206940BB606930BB61
:106CB000E06898B3A86943F603718843A86100228D
:106CC00094F8240084F82420D4F82CC0BCF1000FE0
:106CD00015D0022808BF40F29112236B28462146A6
:106CE000E0476869000544BFA8695FEA00500DD518
:106CF0002CE000210843A86520690028D6D06869E7
:106D0000000544BFA8695FEA00501FD46869C00449
:106D100044BFA8695FEAC0402BD4B0BD6869800554
:106D200002D5E86DC006C5D04FF400706861A8694F
:106D300040F40070A861A86920F00300A8616869A8
:106D4000000544BFA8695FEA0050DFD54FF400603A
:106D50006861A06800281CBF022084F82400A06A93
:106D60000130A0626869C00444BFA8695FEAC040FE
:106D7000D3D54FF480506861A06800281CBF022062
:106D800084F82400A06A0130A062B0BD4CF6E34054
:106D90004CF65A71C8F20000C8F2000140F29C6241
:106DA00003F032FA0000000049F69800C2F2000039
:106DB000416844F20000C4F2180000F065BB000016
:106DC00049F69800C2F20000816848F20000C4F25F
:106DD000180000F059BB000049F69800C2F200000C
:106DE000C1684CF20000C4F2180000F04DBB000076
:106DF00049F69800C2F2000001690020C4F21900AF
:106E000000F042BB0000000049F69800C2F200000A
:106E1000416944F20000C4F2190000F035BB0000E3
:106E200049F69800C2F20000816948F20000C4F2FD
:106E3000190000F029BB000049F69800C2F20000DA
:106E4000C1694CF20000C4F2190000F01DBB000043
:106E500049F69800C2F20000016A0020C4F21A004C
:106E600000F012BB00000000C16A11F4E06F1CBF0B
:106E7000C16A11F4E06F07D0C16A11F4E06F03D06A
:106E8000C16A11F4E06FEFD1416949025CBF416909
:106E90005FEA412105D44169490202D441694902AE
:106EA000F2D543F6FF71C4F219018842416941F0FD
:106EB000404141F4FE1141614FF00001816113DC5A
:106EC0004BF6FF71C4F2180188421BDC44F200014A
:106ED000C4F2180188422CD048F20001C4F2180113
:106EE00088424ED1022034E04BF6FF71C4F2190102
:106EF00088420FDC44F20001C4F2190188421AD121
:106F0000052026E04CF20001C4F21801884209D1A4
:106F100003201EE04CF20001C4F21901884212D194
:106F2000072016E00021C4F21901884236D104205E
:106F30000FE001200DE048F20001C4F2190188427F
:106F40002CD1062005E00021C4F21A01884225D187
:106F500008204CF66441C8F2000131F910004CF2EF
:106F60006802C4F20F0200F01F01000A4FF0030C88
:106F700052F820300CFA01F123EA010142F8201006
:106F8000704758B94CF6B0704CF6F471C8F2000076
:106F9000C8F200014FF4757203F036F94CF68B70AD
:106FA0004CF6BB71C8F20000C8F200017A2203F06F
:106FB0002BF900000000000000281FBF4FF4E13152
:106FC0000022C0E90012C0E902221EBF0261028253
:106FD00070474CF6ED704CF6BB71C8F20000C8F279
:106FE000000140F2062203F00FF90000000000004B
:106FF0002DE9F04F89B0002900F0C681D1F800E0FA
:10700000BEF1000F00F0CB810B7A052B80F0D2810E
:107010000290CDE90031487A0428039000F2D28131
:10702000CEEBCE0006904FEA8E000EEB4E0107909D
:10703000480005900EEB8E000490002407204FF0CE
:10704000000B754600216FE00746049800EB0C0129
:10705000B2FBF1F50120290408BF0125A9B2CDF842
:1070600020A010FA85F3059808FB01F103FB08F353
:10707000B2FBF1F100EB0C06B2FBF3F3B2FBF6FA54
:1070800001205E46A1EB0E0BAEEB03018B4584BFE6
:1070900001358B46CB458ABF25464646CB465FEA3F
:1070A0000A4108BF4FF0010A1FFA8AF17B1E10FA4D
:1070B0008AF4069859436343B2FBF1F4B2FBF3F34D
:1070C00000EB0C01B2FBF1F1A4EB0E04AEEB0303F9
:1070D0009C4284BF1C460AF1010A5C458ABFAA464D
:1070E00008F101065C460B0408BF012101208BB2A8
:1070F00010FA81F57B437D43B2FBF3F3B2FBF5F06D
:10710000A3EB0E05AEEB00039D4284BF1D4601318B
:10711000A5428CBF514608F102063846A54288BFF9
:107120002546381D089CB346079BA44603EB040A7A
:10713000B2FBFAF40126C31EA0F10208270408BF1F
:107140000124A7B216FA84F65F435E43B2FBF7F759
:10715000B2FBF6F6A7EB0E09AEEB0606B14584BF0F
:107160000134B146A9458ABF0C469B46A946B8F1F1
:10717000210F7FF469AF48F21F51DDF80CC0C5F252
:10718000EB11AEFB0101480900EB4000814504D939
:1071900040F2215009B0BDE8F08F43F6FF70029E27
:1071A000C4F21900864214DC4BF6FF70C4F21800DA
:1071B00086421CDC44F20000C4F21800864226D04D
:1071C00048F20000C4F21800864240F00381022019
:1071D00037E04BF6FF70C4F2190086420FDC44F230
:1071E0000000C4F2190086421BD1052029E04CF2B0
:1071F0000000C4F2180086420BD1032021E04CF2BB
:107200000000C4F21900864214D1072019E00120C1
:1072100017E00020C4F21900864240F0E880042004
:107220000FE048F20000C4F21900864240F0DF800F
:10723000062006E00020C4F21A00864240F0D78003
:1072400008204CF66441C8F2000131F910004CF2FC
:107250006802C4F20F0200F01F01000A032352F873
:10726000207003FA01F1394342F820106FF35F34C4
:10727000B06840F00200B060B06820F00200B0607A
:107280002BF00300316904284EF2000008BF41F4DE
:107290000031CEF2FF0008404FF0F85101EB0B61D6
:1072A00001F0F85121440844306140F2177130690F
:1072B00020F000503061B069019D8843EA7B297954
:1072C000AB7B02F007026F79084303F0010340EA49
:1072D0000220012F40EA830003D139B120F400607D
:1072E00006E0002918BF40F0100001E040F4006003
:1072F000B0613069E979AA7A61F34D302B7B697B03
:10730000002A3061009840EA0C40F062B06A40F018
:107310008800B062B06A40F44040B06201F0010001
:1073200003F00101736A43EA001040EA4110706201
:1073300003D0706A40F008007062E87A18B1706A91
:1073400040F0010070624CF20000A979CCF21F00FD
:107350002A7C00F100506B7C002904BF4CF2000035
:10736000CCF21F007169002A40EA01007061B06927
:1073700018BF40F40020002B18BF40F48020B061FB
:10738000002009B0BDE8F08F4CF6ED704CF6BB71F3
:10739000C8F20000C8F20001EE2202F035FF4DF203
:1073A00025004CF6BB71C8F20000C8F20001EF22C4
:1073B00002F02AFF4CF6BB7112A0C8F20001F122C4
:1073C00002F022FF4CF6BB711EA0C8F20001F222AF
:1073D00002F01AFF5EB94CF6B0704CF6F471C8F2C8
:1073E0000000C8F200014FF4757202F00DFF4CF678
:1073F0008B704CF6BB71C8F20000C8F200017A2213
:1074000002F002FF46534C5F464541545552455FDA
:107410004C50554152545F4649464F5F53495A4577
:107420006E286261736529203E3D20636F6E666938
:10743000672D3E74784669666F57617465726D6139
:10744000726B000046534C5F464541545552455FB0
:107450004C50554152545F4649464F5F53495A4537
:107460006E286261736529203E3D20636F6E6669F8
